:020000040800F2
:10000000848601200D500008A1670008AD67000834
:10001000B5670008BD670008C5670008000000005C
:100020000000000000000000000000003DC40008C7
:10003000CD67000800000000B9C5000809C6000827
:10004000755000087550000875500008755000087C
:10005000755000087550000875500008755000086C
:10006000755000087550000875500008755000085C
:10007000755000087550000875500008755000084C
:10008000755000087550000875500008755000083C
:10009000755000087550000875500008755000082C
:1000A000755000087550000875500008755000081C
:1000B000755000087550000875500008755000080C
:1000C00075500008755000087550000875500008FC
:1000D000755000082593000821AD0008E19600083E
:1000E00021840008755000087550000875500008FC
:1000F00075500008755000087550000875500008CC
:1001000075500008E9670008755000087550000830
:1001100075500008755000087550000875500008AB
:10012000755000087550000875500008755000089B
:10013000755000087550000875500008755000088B
:10014000755000087550000875500008D967000800
:10015000755000087550000875500008755000086B
:10016000755000087550000875500008755000085B
:10017000755000087550000875500008755000084B
:10018000755000087550000880B500AFEE201E21A4
:1001900000F042FA80BD00BF80B582B000AF0023FE
:1001A000FB710A2002F016F80023FB7125E0FB79B1
:1001B0005133DBB25B00DBB23A1DEE2011461A462A
:1001C000022300F0AFFA0346BB71BB79002B04D1C8
:1001D00010F012FBFFF7E0FF12E0FB7901333A79F0
:1001E00092B2120291B27A7992B20A4491B2064A5C
:1001F00022F81310FB790133FB71FB79052BD6D95B
:100200000837BD4680BD00BF7809002080B500AF2B
:100210000A2001F0DFFFFFF7B7FF642001F0DAFFEB
:10022000FFF7BAFF80BD00BF80B582B000AFEE20FF
:10023000582100F0F1F90346FB71FB79002B03D143
:1002400010F0DAFA002300E0012318460837BD4613
:1002500080BD00BF80B582B000AFEE20482100F025
:10026000DBF90346FB71FB79002B03D110F0C4FAD4
:10027000002300E0012318460837BD4680BD00BFBB
:1002800080B582B000AF3B1DEE201946002203234B
:1002900000F048FA0346FB71FB79002B03D110F004
:1002A000ABFA002309E03A79064B9A757A79054B47
:1002B0005A75BA79034B1A75012318460837BD469B
:1002C00080BD00BF7809002080B582B000AF3B1D23
:1002D000EE2019460022032300F024FA0346FB71A6
:1002E000FB79002B03D110F087FA002309E03A795B
:1002F000064B9A747A79054B5A74BA79034B1A747F
:10030000012318460837BD4680BD00BF780900208C
:100310002DE9B04F8CB000AF544B1A69534B5B8939
:100320001B02D31A1A464FF00003C7E90A234F4BAA
:100330009B881B0418464FF00001C7E900014B4B96
:100340001B899AB24FF00003B96A03FB01F0F96A06
:1003500002FB01F10844B96AA1FB0223C1180B4654
:10036000D40944EA4364DD11D7E90023121943EBB1
:100370000503C7E908233D4B5B88DB0318464FF0B4
:1003800000013A4BDB889AB24FF00003BC6A03FBD2
:1003900004F5FC6A02FB04F42C44BD6AA5FB0223AD
:1003A0001C442346140A3C613C6944EA03643C61F2
:1003B0001B127B61D7E90423121843EB0103C7E941
:1003C00006232A4B5B691A464FF00003B96903FB09
:1003D00001F0F96902FB01F10144B869A0FB0223B5
:1003E00019440B464FEA525A4AEAC32A4FEA635B62
:1003F000D7E90823BAEB02026BEB0303D10BB96018
:10040000B96841EA4341B960DB13FB60BA68184B35
:100410001A60164B9B899AB24FF00003B96A03FB2E
:1004200001F0F96A02FB01F10144B86AA0FB022362
:1004300019440B464FEAD25848EA43284FEAE35999
:1004400018F5FA6249F100031046194614F062FCEF
:1004500007EE100ADFED077AC7EE277A064BC3EDE9
:10046000007A3037BD46BDE8B08F00BF7809002064
:10047000000000200000C8427009002000000000B9
:1004800080B582B000AF78605D4BDA697B689A42D4
:1004900002D95C4B1B68A6E0594B0C22DA61584B21
:1004A0001B7E032B00F29D8001A252F823F000BFB7
:1004B000C1040008ED0400081905000845050008FE
:1004C000FFF7B2FE0346002B09D04D4B1B7E0133D4
:1004D000DAB24B4B1A764A4B0C22DA6181E0484B78
:1004E00000221A76464B0C22DA617AE0FFF7ECFE26
:1004F0000346002B09D0424B1B7E0133DAB2404B3E
:100500001A763F4B0C22DA616BE03D4B00221A76E3
:100510003B4B0C22DA6164E0FFF79CFE0346002BA4
:1005200009D0374B1B7E0133DAB2354B1A76344B88
:100530000C22DA6155E0324B02221A76304B0C2243
:10054000DA614EE0FFF79CFE0346002B42D0FFF736
:10055000DFFE2D4B1B68B3F57A7F34D32A4B1B6823
:100560002A4A93422FD8284B1B6807EE903AF8EEA0
:10057000677A9FED277AC7EE877A17EE900A13F015
:1005800073FF02460B461046194619A3D3E9002310
:1005900010F07EFF02460B464FF000001D4913F09D
:1005A00003FE02460B461046194613A3D3E9002367
:1005B00013F0AEFF02460B461046194614F08AFAB5
:1005C0000246104B1A600E4B00221A760C4B0F227B
:1005D000DA6105E00A4B02221A76094B0C22DA6135
:1005E00000BF084B1B6818460837BD4680BD00BFDA
:1005F00000000020965BC83F0000000040A5E540D9
:10060000780900200400002000000020C0D4010070
:1006100080E6C5470000F03F80B584B000AF0346D8
:100620000A46FB711346BB7142F21073FB600BE08C
:10063000FB68013BFB60FB68002B05D134480121BE
:100640000FF034F800235FE031484FF400310FF031
:10065000F9F80346002BEBD12D4801210FF006F8E5
:100660000BE0FB68013BFB60FB68002B05D12848D1
:1006700001210FF01BF8002346E0254825490FF023
:10068000E1F80346002BECD0FB7921481946002203
:100690000FF02CF80BE0FB68013BFB60FB68002BC4
:1006A00005D11B4801210FF001F800232CE0184868
:1006B00019490FF097F80346002BECD0BB7914488A
:1006C00019460FF071F80BE0FB68013BFB60FB681B
:1006D000002B05D10E4801210EF0E8FF002313E0A6
:1006E0000B480E490FF07EF80346002BECD008486B
:1006F00001210EF0DBFF00BF054809490FF0A2F809
:100700000346002BF8D1012318461037BD4680BDA3
:100710000054004001000010820007008400070020
:100720001000001080B584B000AF396011461A4641
:100730000346FB710B46BB711346BB8042F210733C
:10074000FB60744801210EF0EFFF0BE0FB68013BFA
:10075000FB60FB68002B05D16E4801210EF0A6FF5F
:100760000023D2E06B484FF400310FF06BF80346E2
:10077000002BEBD1674801210EF078FF0BE0FB68FE
:10078000013BFB60FB68002B05D1624801210EF0A4
:100790008DFF0023B9E05F485F490FF053F803462F
:1007A000002BECD0FB795B48194600220EF09EFF2F
:1007B0000BE0FB68013BFB60FB68002B05D1554853
:1007C00001210EF073FF00239FE0524853490FF0C0
:1007D00009F80346002BECD0BB794E4819460EF0C1
:1007E000E3FF0BE0FB68013BFB60FB68002B05D1DE
:1007F000484801210EF05AFF002386E04548484949
:100800000EF0F0FF0346002BECD0424801210EF021
:100810002DFF0BE0FB68013BFB60FB68002B05D163
:100820003C4801210EF042FF00236EE039483A496E
:100830000FF008F80346002BECD0FB793548194639
:1008400001220EF053FF0BE0FB68013BFB60FB68ED
:10085000002B05D12F4801210EF028FF002354E082
:100860002C4830490EF0BEFF0346002BECD044E08C
:10087000FB68013BFB60FB68002B05D1254801218B
:100880000EF014FF002340E0BB88012B14D1214857
:100890004FF2FF710EF068FF1E4800210EF044FF7A
:1008A0001C4801210EF002FF00BF1A481E490EF03D
:1008B000C9FF0346002BF8D10BE0FB68013BFB604E
:1008C000FB68002B05D1134801210EF0EFFE002339
:1008D0001BE0104815490EF085FF0346002BECD0B5
:1008E0000C480EF071FF03461A463B681A703B68CD
:1008F00001333B60BB88013BBB80BB88002BB7D179
:10090000044801210EF010FF012318461037BD46A0
:1009100080BD00BF005400400100001082000700AD
:1009200084000700020003001000001040000300D4
:1009300080B500AF314B1B78012B1CD0022B3AD075
:10094000002B59D12E4B1B880120194609F020FBA2
:100950002B4B5B880220194609F01AFB284B9B8819
:100960000320194609F014FB254BDB8804201946A7
:1009700009F00EFB40E04FF0000000F0E1F809F054
:10098000D9FA1F4B5B880220194609F001FB1C4B6A
:100990009B880320194609F0FBFA194BDB880420D9
:1009A000194609F0F5FA174B1B78002B02D000F01E
:1009B000B5F921E020E0144BD3ED007AFDEEE77AA3
:1009C00017EE900A00F048F8104B1B68184600F02C
:1009D000B7F80B4B5B880220194609F0D9FA084B8F
:1009E0009B880320194609F0D3FA054BDB880420C5
:1009F000194609F0CDFA00BF80BD00BFA009002054
:100A0000E83E0120A60900209C090020980900204A
:100A100080B483B000AF0023FB710DE0FB79FA795D
:100A200005320B498A5CD2B207F108010B4403F886
:100A3000082CFB790133FB71FB79032BEED93B6862
:100A4000044A13600C37BD465DF8047B704700BF55
:100A5000A07001209C090020B0B584B000AF786080
:100A60002F4B1B68184613F0FFFC04460D462D4B18
:100A70001B68184613F0F8FC02460B461046194650
:100A800025A3D3E9002313F043FD02460B4620467D
:100A9000294613F089FB02460B461046194614F00E
:100AA00019F80346BB60204BD3ED007A9FED1F7A07
:100AB00067EE877A97ED027A77EE677AC7ED037A69
:100AC000D7ED037A9FED1A7AF4EEC77AF1EE10FAB9
:100AD00008DDD7ED037A9FED177A77EEC77AC7ED79
:100AE000037A10E0D7ED037A9FED137AF4EEC77A1C
:100AF000F1EE10FA07D5D7ED037A9FED0E7A77EE77
:100B0000877AC7ED037A0D4AFB6813601037BD463C
:100B1000B0BD00BFAFF30080B0CB631ADCA54C4082
:100B20009C0900202C4801203448012000000000CE
:100B3000000034430000B443000034C3980900208F
:100B4000B0B584B000AF7860D7ED017A9FED387A08
:100B5000F4EEC77AF1EE10FA02DD364B7B600AE064
:100B6000D7ED017A9FED347AF4EEC77AF1EE10FA00
:100B700001D5324B7B60324B1B68184613F074FC76
:100B800002460B461046194627A3D3E9002313F06B
:100B9000BFFC02460B4614461D46786813F064FC01
:100BA00002460B462046294613F0FEFA02460B4643
:100BB000104619464FF00002224B13F0A9FC0246E2
:100BC0000B4614461D46204BD3ED007A9FED1F7A4D
:100BD00067EE877A17EE900A13F046FC02460B4642
:100BE0002046294613F0E2FA02460B461046194603
:100BF00013F070FF0346FB60154B1B8807EE903A1D
:100C0000B8EEE77AD7ED037A77EE277AFCEEE77A4B
:100C1000C7ED007A3B889BB20120194609F0B8F96C
:100C20001037BD46B0BD00BFB0CB631ADCA54C4049
:100C30000000204200002042000020C2000020C22C
:100C40003448012000001C402C4701200000000017
:100C5000E83E0120AFF3008080B582B000AF1F4BAB
:100C60005B79DAB21E4B1A700023FB710DE0FB7941
:100C7000FA79063219498A5CD2B207F108010B44AD
:100C800003F8042CFB790133FB71FB79012BEED9BE
:100C9000BA88144B1A800023FB710DE0FB79FA79B6
:100CA00008320E498A5CD2B207F108010B4403F8FE
:100CB000042CFB790133FB71FB79012BEED9BB8846
:100CC0009AB2094B1A80054B9B7ADAB2074B1A701D
:100CD0002A2003F0ADFF0837BD4680BDA07001207B
:100CE000B0090020A2090020A4090020080000206B
:100CF00080B500AF064B01221A70064B00221A8005
:100D000007F078FD03465B00034A136080BD00BF17
:100D1000A6090020A8090020AC09002080B582B0F7
:100D200000AF354B1B78022B62D107F063FD034601
:100D30009BB25B00FB80314B1B689BB2FA88D31AD5
:100D40009AB22F4B1B8813449AB22D4B1A80FB8802
:100D50002A4A13602A4B1A882A4B1B889A4214D3BA
:100D6000294B1B78012B06D1274B02221A70244BEA
:100D700000221A8009E0244B1B78022B05D1224B5C
:100D800000221A701E4B00221A80204B1B78002B69
:100D90002ED01E4B1B78082B2AD81B4B1B78012BFF
:100DA00011D11A4B1978194B1B78013B184A32F8AC
:100DB0001320184B1B889BB213449BB2084619465C
:100DC00009F0E6F814E0104B1B78022B10D10F4B02
:100DD00019780E4B1B78013B0D4A32F813200D4B4E
:100DE0001B889BB2D31A9BB20846194609F0D0F86B
:100DF0000837BD4680BD00BFB0090020AC09002007
:100E0000A8090020A4090020A6090020080000204D
:100E1000F83E0120A209002090B484B000AF034640
:100E20000A46FB711346BB710023FB60BB7903F0DC
:100E300003039B000F2202FA03F3FB601649BB7900
:100E40009B08DBB21846144ABB799B08DBB202331D
:100E500052F82320FB68DB431A40831C41F823200F
:100E60000D48BB799B08DBB21C460B4ABB799B083B
:100E7000DBB2023352F82320F979BB7903F0030384
:100E80009B0001FA03F31A43A31C40F823201037F8
:100E9000BD4690BC704700BF0038014080B489B0A7
:100EA00000AFF860B96011461A460B46FB71134655
:100EB000BB800023FB76FB68DB78002B22D100236C
:100EC0007B610023FB61BB880333002B00DA033313
:100ED0009B107B61FB79FA6832339B0013449B685B
:100EE0003B610023FB6109E0BB681A683B691A603B
:100EF000FB690133FB61BB680433BB60FA697B6942
:100F00009A42F1D3FB7E18462437BD465DF8047B38
:100F1000704700BF80B489B000AFF860B960134675
:100F2000FB800023FB61FB880333002B00DA0333D3
:100F30009B10BB61FB68D3F8D0307B610023FB6161
:100F400009E07B691A68BB681A60FB690133FB61C1
:100F5000BB680433BB60FA69BB699A42F1D3BB68D2
:100F600018462437BD465DF8047B704780B586B0CF
:100F700000AF786039600023FB7400237B6100239D
:100F8000FB60FB6843F02003FB603B68DBB203F0CF
:100F90001F03DBB203F01F039B01FA6822F4F8621F
:100FA0001343FB607B68DB68FA681A617B68DB6867
:100FB0001B69FB607B6901337B617B69094A934252
:100FC00000D906E0FB685B0903F00103DBB2012BEB
:100FD000ECD003200AF0FCF9FB7C18461837BD461C
:100FE00080BD00BF400D030080B483B000AF7860C7
:100FF0007B68DB685B6903F0010318460C37BD466C
:101000005DF8047B704700BF80B582B000AF7860A8
:101010007868FFF7E9FF0346012B14BF0123002383
:10102000DBB218460837BD4680BD00BF80B485B02E
:1010300000AF78600023FB607B68DB685B69FB6066
:101040007B68DB689B69FA681340FB60FB681846A5
:101050001437BD465DF8047B704700BF80B485B08F
:1010600000AF78600023FB737B681B699B68BB60E3
:101070003B7AC3F34103DBB2022B09D0032B04D02C
:10108000012B02D00323FB7305E00223FB7302E074
:101090000123FB7300BFFB7B18461437BD465DF888
:1010A000047B704780B487B000AF78600023FB7585
:1010B0000023BB607B681B699B683B617B689B6905
:1010C0001B68FB603B7CC3F34103DBB2022B04D003
:1010D000BB896FF30A03BB8105E0BB89032262F37E
:1010E0000A03BB8100BF7B689B69FA681A607B7A40
:1010F00043F001037B727B681B697A68126951684F
:10110000BA68D2431140BA680A435A60FB7D184658
:101110001C37BD465DF8047B704700BF80B487B0C4
:1011200000AF786039600023FB740023FB6000236C
:10113000BB603B685B78012B0FD13B681B787A68FA
:1011400004339B0013449B687B613B681B781A4601
:10115000012393409BB23B810EE03B681B787A6889
:1011600014339B0013445B687B613B681B781A4611
:10117000012393409BB27B817B691B68FB607B7B77
:1011800023F07F03DBB2002B27D13B689B689BB227
:10119000C3F30A039AB2BB8962F30A03BB813B68BB
:1011A000DB7803F00303DAB2BB7B62F38303BB7328
:1011B0003B68DB88DBB203F00F03DAB2FB8962F332
:1011C0008913FB81FB7B43F01003FB737B7B43F0B4
:1011D00080037B73FA687B691A607B681B697A6895
:1011E0001269D169BA680A43DA61FB7C18461C3778
:1011F000BD465DF8047B704780B588B000AF78606D
:1012000039600023FB770023BB6100237B6100234F
:101210003B613B685B78012B40F0AB803B681B78FF
:101220007A6804339B0013449B681B687B613B68AE
:101230001B787A6804339B0013449B681B693B61ED
:101240003B685B69002B09D13B696FF312033B617B
:101250007B8A012262F3CC037B8222E03B685B69DC
:10126000C3F312023B6962F312033B613B685A69A4
:101270003B689B6813445A1E3B689B68B2FBF3F3C0
:101280009BB2C3F309039AB27B8A62F3CC037B82DD
:101290003B68DB78012B04D1FB7C012262F346130F
:1012A000FB743B681B787A6804339B0013449B688B
:1012B0003A691A617B68DB78012B0AD13B681B789D
:1012C0007A6804339B0013449B683A6812695A6138
:1012D00015E03B68DB78012B11D03B685B69002B84
:1012E0000DD03B681B781A4601239340BB617B6895
:1012F0001B697A681269516BBA690A435A633B6881
:10130000DB78012B14D17B681B699B68FB60FB6851
:10131000C3F30D239BB203F00103002B04D1FB7D2B
:1013200043F02003FB7503E0FB7D43F01003FB75E6
:10133000FB7D43F00403FB75FB7D43F08003FB75ED
:101340003B681B787A6804339B0013449B687A6976
:101350001A603B68DB78012B40F089803B68D968D4
:101360003B681A783B685B699BB27868FFF796FD2B
:101370007DE03B681B787A6814339B0013445B68FC
:101380001B687B613B681B787A6814339B001344AD
:101390005B681B693B613B685B69002B0DD13B6857
:1013A0009B68C3F312023B6962F312033B617B8AC1
:1013B000012262F3CC037B8220E03B685A693B68E0
:1013C0009B6813445A1E3B689B68B2FBF3F39BB2C5
:1013D000C3F309039AB27B8A62F3CC037B827B8AD4
:1013E000C3F3C9039BB21A463B689B6803FB02F335
:1013F000C3F312023B6962F312033B613B681B7843
:101400007A6814339B0013445B683A691A617B68FD
:10141000DB78012B09D13B681B787A6814339B0079
:1014200013445B683A6812695A613B68DB78012BA8
:101430000CD13B685B79002B04D0FB7D43F020038B
:10144000FB7503E0FB7D43F01003FB75FB7D43F070
:101450000403FB75FB7D43F08003FB753B681B7841
:101460007A6814339B0013445B687A691A60FB7FC7
:1014700018462037BD4680BD80B489B000AF786083
:1014800039600023FB770023BB6100233B6100230D
:10149000BB603B685B78012B70D17B689B697B618B
:1014A0007B691B683B617B691B69BB603B685B694F
:1014B000002B09D13B7A6FF306033B72BB7A012202
:1014C00062F3C403BB7223E03B685A693B689B68C4
:1014D0009A420ED93B689A683B685A613B689B68A0
:1014E000DBB203F07F03DAB23B7A62F306033B72AE
:1014F00009E03B685B69DBB203F07F03DAB23B7A59
:1015000062F306033B72BB7A012262F3C403BB722F
:10151000BA687B691A617B68DB78012B09D13B686B
:101520001B787A6804339B0013449B683A681269FD
:101530005A61FB7C43F00403FB74FB7C43F08003A3
:10154000FB743A697B691A607B68DB78002B76D183
:101550003B685B69002B72D03B681B781A460123FD
:1015600093401A46BB691343BB617B681B697A6869
:101570001269516BBA690A435A6360E03B681B7891
:101580007A6814339B0013445B681B683B613B68BB
:101590001B787A6814339B0013445B681B69BB603B
:1015A0003B685B69002B0FD13B689B68DBB203F0A3
:1015B0007F03DAB23B7A62F306033B72BB7A012205
:1015C00062F3C403BB7212E03B689A683B685A61DD
:1015D0003B689B68DBB203F07F03DAB23B7A62F3CD
:1015E00006033B72BB7A012262F3C403BB723B6801
:1015F0001B787A6814339B0013445B68BA681A61DD
:101600007B68DB78012B09D13B681B787A6814333F
:101610009B0013445B683A6812695A61FB7C43F093
:101620000403FB74FB7C43F08003FB743B681B7872
:101630007A6814339B0013445B683A691A60FB7F35
:1016400018462437BD465DF8047B704780B487B0E8
:1016500000AF786039600023FB750023FB603B68B6
:101660005B78012B1CD13B681B787A6804339B00A4
:1016700013449B683B613B691B68FB60FB7B23F069
:101680007F03DBB2002B03D0FB7B43F04003FB73F3
:10169000BB7B43F02003BB73FA683B691A6011E01F
:1016A0003B681B787A6814339B0013445B683B618A
:1016B0003B691B68FB60BB7B43F02003BB73FA688C
:1016C0003B691A60FB7D18461C37BD465DF8047BFC
:1016D000704700BF80B487B000AF786039600023E6
:1016E000FB740023FB603B685B78012B08D13B68EF
:1016F0001B787A6804339B0013449B687B6107E086
:101700003B681B787A6814339B0013445B687B61E9
:101710007B691B68FB60BB7B6FF34513BB733B6846
:10172000DB78032B03D03B68DB78022B03D1FB7BF8
:1017300043F01003FB73FA687B691A60FB7C184660
:101740001C37BD465DF8047B704700BF80B485B090
:1017500000AF78607B681B699B69FB607B681B69D5
:10176000DB69FA681340FB60FB681B0C18461437F2
:10177000BD465DF8047B704780B485B000AF7860EB
:101780000B46FB70FB787A6814339B0013445B684C
:101790009B68FB607B681B695B69FA681340FB60B0
:1017A000FB6818461437BD465DF8047B704700BFE0
:1017B00080B485B000AF78607B681B699B69FB6073
:1017C0007B681B69DB69FA681340FB60FB689BB2AE
:1017D00018461437BD465DF8047B704780B487B067
:1017E00000AF786000233B61FB7C43F0C003FB74D7
:1017F000BB7C012262F3C403BB743B7C182262F3FE
:1018000006033B747B685B6D3A691A617B68DB7821
:10181000012B16D10023FB607B685B6D7A6802F2B6
:10182000CC525A617B685B6D1B68FB60FB7B43F0AD
:101830008003FB734FF08023FB607B685B6DFA686D
:101840001A601C37BD465DF8047B704780B58CB0CC
:1018500000AF4FF000037B624FF00003FB620023F8
:1018600087F82B30BD48BE490EF0C4F8034607EE9A
:10187000903AF1EE677AB6EE007A67EE877AC7EDB6
:10188000097A3B461846B6497A6A0EF033F93B4668
:101890000C331846B1497A6A0EF02CF93A463B46A9
:1018A00010461946AD4A0EF049F93B4603F10C02C9
:1018B0003B460C3310461946A94A0EF03FF93B4609
:1018C00003F118013A463B460C33084611461A46C6
:1018D0000EF0BCF83A463B46104619460EF08AF820
:1018E000F862D7ED0B7AB7EE097AF4EEC77AF1EE2B
:1018F00010FA15D5D7ED0B7A9FED9A7AF4EEC77AE8
:10190000F1EE10FA0CDDB0EE087AD7ED0B7A77EE37
:10191000677AB6EE007A67EE877AC7ED0B7A2DE02C
:10192000D7ED0B7A9FED907AF4EEC77AF1EE10FACC
:1019300021D5D7ED0B7A9FED8D7AF4EEC77AF1EED3
:1019400010FA18DDF86A12F08FFD02460B461046B9
:1019500019460FF019FF02460B464FF0000084496C
:1019600012F000FF02460B461046194613F0B2F87B
:101970000346FB6202E0012387F82B303B467748A1
:101980001946FA6A0EF0B6F83B4603F10C023B46E4
:101990000C33104619460EF02DF8F862D7ED0B7A8D
:1019A000B7EE097AF4EEC77AF1EE10FA15D5D7ED55
:1019B0000B7A9FED6C7AF4EEC77AF1EE10FA0CDD3B
:1019C000B0EE087AD7ED0B7A77EE677AB6EE007A4A
:1019D00067EE877AC7ED0B7A2DE0D7ED0B7A9FED96
:1019E000627AF4EEC77AF1EE10FA21D5D7ED0B7AD0
:1019F0009FED5E7AF4EEC77AF1EE10FA18DDF86A20
:101A000012F032FD02460B46104619460FF0BCFE9E
:101A100002460B464FF00000554912F0A3FE024665
:101A20000B461046194613F055F80346FB6202E0D8
:101A3000012387F82B303B460C3349481946FA6A94
:101A40000EF058F83B4603F118023B461833104697
:101A500019460DF0CFFFF862D7ED0B7AB7EE097A91
:101A6000F4EEC77AF1EE10FA15D5D7ED0B7A9FEDAB
:101A70003D7AF4EEC77AF1EE10FA0CDDB0EE087A9A
:101A8000D7ED0B7A77EE677AB6EE007A67EE877A53
:101A9000C7ED0B7A2DE0D7ED0B7A9FED337AF4EE9C
:101AA000C77AF1EE10FA21D5D7ED0B7A9FED2F7A98
:101AB000F4EEC77AF1EE10FA18DDF86A12F0D4FCF1
:101AC00002460B46104619460FF05EFE02460B46D4
:101AD0004FF00000264912F045FE02460B46104624
:101AE000194612F0F7FF0346FB6202E0012387F874
:101AF0002B303B4618331F481946FA6A0DF0FAFF9F
:101B000097F82B30002B26D0144B4FF07E521A60E2
:101B1000124B4FF000025A60104B4FF000029A60D7
:101B20000E4B4FF00002DA600C4B4FF07E521A6100
:101B30000A4B4FF000025A61084B4FF000029A61C5
:101B4000064B4FF00002DA61044B4FF07E521A62EE
:101B5000002387F82B303037BD4680BD5800002069
:101B6000640000200AD7233F0000C8420AD7233C64
:101B70000000F03F7000002080B584B000AF924BB1
:101B800093ED007A904BD3ED007A27EE277A8E4BB7
:101B9000D3ED016A8C4BD3ED017A66EEA77A37EE6E
:101BA000277A894BD3ED026A874BD3ED027A66EE32
:101BB000A77A77EE277A17EE900A12F055FC0246C4
:101BC0000B46104619460FF0DFFD02460B46104645
:101BD000194612F07FFF0346FB60D7ED037A9FEDB5
:101BE0007B7AC7EE877AC7ED037AB7EE007AD7ED36
:101BF000037A77EE677AFDEEE77A17EE903A83EA9A
:101C0000E372A2EBE3721346DB079B1A5B0001331E
:101C1000002B1ADBB7EE007AD7ED037A77EE677AFE
:101C2000FDEEE77A17EE903A83EAE372A2EBE372F5
:101C30001346DB079B1A5B000133012BA8BF01236E
:101C400007EE903AF8EEE77A01E0DFED617AC7ED52
:101C5000027A60485C49604A0DF0F8FEB86812F0FC
:101C600003FC02460B46104619464FA3D3E9002356
:101C700012F04EFC02460B461046194612F02AFF9F
:101C80000346564853491A460DF034FFB86812F01F
:101C9000EBFB02460B461046194645A3D3E9002349
:101CA00012F036FC02460B461046194612F012FF9F
:101CB00003464B4847491A460DF01CFF494849491D
:101CC000474A0DF03BFF484B93ED007A474BD3ED6D
:101CD000007A27EE277A444BD3ED036A444BD3EDC9
:101CE000007A66EEA77A77EE677A424BC3ED007A08
:101CF000404B1B68404838491A460DF0FBFE3F48F0
:101D00003D493F4A0DF0F6FE344834493B4A0DF058
:101D100015FF334838493B4A0DF0ECFE3148314954
:101D20002F4A0DF00BFF2F482E490DF063FE03469E
:101D3000184612F099FB02460B46104619460FF062
:101D400023FD02460B461046194612F0C3FE034619
:101D50007B60786812F088FB02460B4610461946F5
:101D600015A3D3E9002312F063FE0346002B15D020
:101D7000786812F079FB02460B4611A1D1E9000107
:101D800012F0F0FC02460B461046194612F0A2FE75
:101D90000346144813491A460DF0ACFE1037BD46F1
:101DA00080BD00BFAFF300803D0AD7A3703D283F40
:101DB000CE70033E3F8C803E101B39C6A6F1144006
:101DC000101B39C6A6F104404C0A00200000004652
:101DD00000000000940A002070000020700A00201B
:101DE000B40900207C0A0020580000202847012068
:101DF000BC47012054000020A00A0020C009002098
:101E00009A99993F17B75138B0B500AF344B5B681A
:101E1000184612F029FB04460D46324BDB69324A64
:101E2000A2FB03235B0907EE903AB8EE677A2F4BCB
:101E3000D3ED027A67EE277A17EE900A12F014FBC0
:101E400002460B461046194623A3D3E9002312F09D
:101E50005FFB02460B462046294612F0A7F90246D0
:101E60000B461046194612F035FE02461C4B5A60CE
:101E70001B4B9B68184612F0F7FA04460D46194BA7
:101E8000DB69194AA2FB03235B0907EE903AB8EE1F
:101E9000677A164BD3ED017A67EE277A17EE900A30
:101EA00012F0E2FA02460B46104619460AA3D3E99D
:101EB000002312F02DFB02460B462046294612F065
:101EC00073F902460B461046194612F003FE02460D
:101ED000034B9A60B0BD00BF88A1C1B287188A4089
:101EE0004C0A00200C4601201F85EB51880A002077
:101EF00080B582B000AF002004F07CFC0346184699
:101F000012F0B2FA02460B461046194678A3D3E9FE
:101F1000002312F0FDFA02460B461046194612F055
:101F2000D9FD0246744B1A60012004F063FC03469D
:101F3000184612F099FA02460B46104619466CA351
:101F4000D3E9002312F0E4FA02460B461046194684
:101F500012F0C0FD0246684B5A60022004F04AFCB1
:101F60000346184612F080FA02460B461046194600
:101F70005FA3D3E9002312F0CBFA02460B461046CA
:101F8000194612F0A7FD02465B4B9A60032004F04D
:101F900031FC0246594B1A60042004F02BFC024627
:101FA000564B5A60052004F025FC0246534B9A60BC
:101FB00053485149534A0DF0C1FD53485049534AC3
:101FC0000DF0BCFDFFF720FF514B4FF000021A60EF
:101FD000504BD3ED007AB1EE677A4B4BD3ED027ADA
:101FE00067EE277A4A4BC3ED017A474B93ED017AAE
:101FF000484BD3ED007A67EE277A454BC3ED027A62
:10200000414B93ED027A434BD3ED007A67EE277A8A
:102010003F4BC3ED037A3E4B4FF000021A613D4B3C
:10202000D3ED007AB1EE677A374BD3ED007A67EEE5
:10203000277A374BC3ED057A364BD3ED007AB1EEF4
:10204000677A314BD3ED017A67EE277A304BC3EDD7
:10205000067A2D4B93ED007A2E4BD3ED007A67EE86
:10206000277A2B4BC3ED077A294B4FF000021A62F7
:1020700029482749294A0DF065FF00237B602EE09F
:1020800000233B6025E024497A6813465B00134433
:102090003A6813449B000B4493ED007A1F497A6819
:1020A00013465B0013443A6813449B000B44D3ED82
:1020B000007A77EE277A18497A6813465B00134452
:1020C0003A6813449B000B44C3ED007A3B6801332C
:1020D0003B603B68022BD6DD7B6801337B607B680D
:1020E000022BCDDD0837BD4680BD00BFAFF30080B9
:1020F00086A0181B266A513F580A00204C0A00206F
:10210000880A00207C0A0020640A0020700A00204F
:102110007C0000205000002058000020B80A002059
:10212000B0B500AF274B9B69184612F09DF90246E7
:102130000B46104619460FF055F902460B4610465D
:10214000194612F0C7FC034607EE903AF1EE677AA3
:102150001D4BC3ED007A1B4BDB69184612F084F966
:1021600004460D46174B1B6A184612F07DF90246CD
:102170000B46204629460FF089F902460B461046C9
:10218000194612F0A7FC0246104B1A600D4BDB6893
:10219000184612F069F904460D460A4B1B681846AA
:1021A00012F062F902460B46204629460FF06EF9FE
:1021B00002460B461046194612F08CFC0246044BB0
:1021C0001A60B0BD5800002030480120344801207A
:1021D0002C48012080B485B000AF78600023FB60FC
:1021E0000023FB6002E0FB680133FB607B684FF477
:1021F0007A7202FB03F31A46FB689A42F3D814374B
:10220000BD465DF8047B704780B500AF4FF40060B9
:10221000012104F05FFA4FF40060002104F05AFA43
:1022200080BD00BF80B485B000AF78600023FB6044
:10223000124B5B68FB60FB6823F4FD4323F07F03D4
:10224000FB607B681B7D1A467B689B681A437B6832
:102250005B681A437B68DB681A437B681B681A4318
:102260007B681B691343FA681343FB60034AFB68EE
:1022700053601437BD465DF8047B7047002C014065
:1022800080B483B000AF0346FB71044AFB7913604E
:102290000C37BD465DF8047B704700BFA080254227
:1022A00080B483B000AF7860034A7B6813600C375A
:1022B000BD465DF8047B7047002C014080B400AF40
:1022C000044B1B6803F003031846BD465DF8047B0E
:1022D000704700BF002C014080B485B000AF78602B
:1022E0000023FB60114A7B681B6893600F4BDB681F
:1022F000FB60FB6823F4FF6323F00703FB607B684C
:102300005A687B689B681A437B68DB681A437B6862
:102310001B691343FA681343FB60044AFB68D360EC
:102320001437BD465DF8047B704700BF002C0140A8
:1023300080B400AF034B1B69DBB21846BD465DF8A5
:10234000047B7047002C014080B485B000AF7860FA
:102350000023FB607A68054B1344FB60FB681B6835
:1023600018461437BD465DF8047B7047142C0140B5
:1023700080B485B000AF78600023FB60124A7B68B0
:102380001B685362104A7B685B6893620E4BDB6A82
:10239000FB60FB6823F0F703FB607B689A687B684F
:1023A000DB681A437B681B691A437B685B691343CC
:1023B000FA681343FB60044AFB68D3621437BD46D6
:1023C0005DF8047B704700BF002C014080B400AF73
:1023D000034BD3F880301846BD465DF8047B704748
:1023E000002C014080B483B000AF0346FB71044A67
:1023F000FB7913600C37BD465DF8047B704700BF66
:102400008C85254280B483B000AF78600B46FB70AA
:10241000FB78002B06D00949084BDA6B7B68134325
:10242000CB6306E00549054BDA6B7B68DB43134061
:10243000CB630C37BD465DF8047B7047002C014030
:1024400080B485B000AF78600023FB73084B5A6BF3
:102450007B681340002B02D00123FB7301E00023B3
:10246000FB73FB7B18461437BD465DF8047B704751
:10247000002C014080B483B000AF7860034A7B68D1
:1024800093630C37BD465DF8047B7047002C014018
:1024900080B485B000AF78600023FB73084B5A6BA3
:1024A0007B681340002B02D00123FB7301E0002363
:1024B000FB73FB7B18461437BD465DF8047B704701
:1024C000002C014080B483B000AF7860034A7B6881
:1024D00093630C37BD465DF8047B7047002C0140C8
:1024E00080B584B000AF4B4BFB6002F041FF07F0BA
:1024F00003FFF32007F0EEFF5820022107F020FF32
:10250000454B1B88F868194607F07AFFFB680233D1
:10251000FB600023BB721EE0BB7A404A9B00134461
:102520001B687B600023FB720FE0FB7A07F110024F
:10253000134413F80C3CF868194607F097FFFB6842
:102540000133FB60FB7A0133FB72FB7A032BECD97E
:10255000BB7A0133BB72BB7A052BDDD90023FB723A
:102560000EE0FB7A2E4A32F813309BB2F868194617
:1025700007F046FFFB680233FB60FB7A0133FB7216
:10258000FB7A022BEDD90023BB721EE0BB7A254AF1
:102590009B0013441B687B600023FB720FE0FB7AF7
:1025A00007F11002134413F80C3CF868194607F0C1
:1025B0005DFFFB680133FB60FB7A0133FB72FB7A42
:1025C000032BECD9BB7A0133BB72BB7A022BDDD96A
:1025D000154B1B88F868194607F012FFFB68023399
:1025E000FB600023FB720DE0FB7A104A32F81330D7
:1025F000F868194607F004FFFB680233FB60FB7ABA
:102600000133FB72FB7A072BEED907F08BFE1037F4
:10261000BD4680BD00000E08C40C002040480120CB
:1026200020470120B0460120AC0A0020F83E0120DE
:1026300080B485B000AF404BFB60FB681A883F4B0D
:102640001A80FB680233FB600023BB721CE000238E
:10265000FB720DE0FB7AFA68127807F110010B4467
:1026600003F80C2CFB680133FB60FB7A0133FB722F
:10267000FB7A032BEED9BB7A7A6831499B000B4475
:102680001A60BB7A0133BB72BB7A052BDFD90023FA
:10269000FB720CE0FB7AFA68128891B2294A22F8A0
:1026A0001310FB680233FB60FB7A0133FB72FB7A89
:1026B000022BEFD90023BB721CE00023FB720DE05C
:1026C000FB7AFA68127807F110010B4403F80C2C1E
:1026D000FB680133FB60FB7A0133FB72FB7A032B4F
:1026E000EED9BB7A7A6818499B000B441A60BB7A12
:1026F0000133BB72BB7A022BDFD9FB681A88134BFC
:102700001A80FB680233FB600023FB720BE0FB7A4C
:10271000FA6811880E4A22F81310FB680233FB6036
:10272000FB7A0133FB72FB7A072BF0D91437BD46D5
:102730005DF8047B704700BF00000E08C40C002049
:102740004048012020470120B0460120AC0A00206B
:10275000F83E012000000000B0B500AF484BDB8917
:10276000184611F06FFE02460B46104619463AA372
:10277000D3E9002311F0CCFE02460B461046194661
:1027800037A3D3E9002311F0C3FE02460B461046DF
:1027900019464FF000023B4B11F0E4FF02460B4696
:1027A0001046194612F096F90246374B1A60344B20
:1027B0001B89184611F046FE02460B461046194684
:1027C00027A3D3E9002311F0A3FE02460B461046CF
:1027D00019464FF000022D4B11F09AFE02460B46AF
:1027E000104619464FF00002264B11F0BBFF02467F
:1027F0000B46104619461CA3D3E9002311F0B2FF83
:1028000002460B461046194619A3D3E9002311F0DE
:102810007FFE02460B4614461D461D4B1B6818469C
:1028200011F022FE02460B461046194612A3D3E9C8
:10283000002311F06DFE02460B462046294611F09A
:10284000B5FC02460B461046194612F043F9024603
:102850000F4B1A60B0BD00BF3333333333331F40E7
:102860000AD7A3703D0A0B40CDCCCCCCCC4C324027
:10287000333333333333D33F666666666666E63F8B
:10288000907001200000B0409C3D012000408F402E
:10289000CC090020AFF30080B0B500AF1C4B1B6823
:1028A000184611F0BFFD02460B461046194614A308
:1028B000D3E9002311F02CFE02460B4614461D46B8
:1028C000144B1B68184611F0ADFD02460B4610462E
:1028D00019460DA3D3E9002311F01AFE02460B4658
:1028E0002046294611F062FC02460B461046194666
:1028F00012F0D0F80246074B1A60B0BDAFF300806B
:102900009A9999999999E93F989999999999C93F6B
:10291000280B0020983D012080B58AB000AF786078
:10292000396000237B6200233B620023FB610023AC
:10293000BB617B681B8A9BB27B627B6A23F440533A
:102940007B623B68DB881A467B6A13437B627B6A47
:102950009AB27B681A827B689B899BB27B627B6A96
:1029600023F4B05323F00C037B623B689A883B68E6
:102970001B8913439AB23B685B8913439BB21A4687
:102980007B6A13437B627B6A9AB27B689A817B681D
:102990009B8A9BB27B627B6A23F440737B623B68B9
:1029A0009B891A467B6A13437B627B6A9AB27B6877
:1029B0009A8207F10803184603F06AFD7B68314AE2
:1029C000934203D07B68304A934202D17B693B62D9
:1029D00001E03B693B627B689B899BB29BB21BB267
:1029E000002B0CDA3A6A13469B0013449A001A44EF
:1029F0003B681B685B00B2FBF3F3FB610BE03A6AD8
:102A000013469B0013449A001A443B681B689B00C2
:102A1000B2FBF3F3FB61FB691C4AA2FB03235B09D6
:102A20001B017B627B6A1B09642202FB03F3FA69C8
:102A3000D31ABB617B689B899BB29BB21BB2002BF4
:102A40000CDABB69DB003233104AA2FB03235B09BB
:102A500003F007037A6A13437B620BE0BB691B0137
:102A600032330A4AA2FB03235B0903F00F037A6A9D
:102A700013437B627B6A9AB27B681A812837BD4612
:102A800080BD00BF00100140001401401F85EB51C4
:102A900080B483B000AF78600B46FB70FB78002BEE
:102AA00008D07B689B899BB243F400539AB27B6841
:102AB0009A8107E07B689B899BB223F400539AB20A
:102AC0007B689A810C37BD465DF8047B704700BF78
:102AD00080B483B000AF78600B467B807B88C3F303
:102AE00008039AB27B689A800C37BD465DF8047B78
:102AF000704700BF80B483B000AF78607B689B886C
:102B00009BB2C3F308039BB218460C37BD465DF871
:102B1000047B704780B487B000AF78600B467B8041
:102B200013467B7000233B610023FB600023BB60E6
:102B300000237B617B687B617B88DBB25B09DBB256
:102B40003B617B8803F01F03FB60FB68012202FAF4
:102B500003F3BB603B69012B03D17B690C337B61C1
:102B600009E03B69022B03D17B6910337B6102E0F2
:102B70007B6914337B617B78002B06D07B697A6993
:102B80001168BA680A431A6006E07B697A691168BD
:102B9000BA68D2430A401A601C37BD465DF8047B10
:102BA000704700BF80B487B000AF78600B467B8071
:102BB0000023FB6000237B610023BB600023FB74C8
:102BC0007B88DBB25B09DBB2BB607B8803F01F0351
:102BD0007B617B69012202FA03F37B61BB68012BF5
:102BE00007D17B689B899BB21A467B6913407B6146
:102BF00011E0BB68022B07D17B681B8A9BB21A4687
:102C00007B6913407B6106E07B689B8A9BB21A4616
:102C10007B6913407B617B881B0A9BB2FB60FB686E
:102C2000012202FA03F3FB607B681B889BB21A4601
:102C3000FB681340FB607B69002B05D0FB68002B11
:102C400002D00123FB7401E00023FB74FB7C1846D7
:102C50001C37BD465DF8047B704700BF80B582B06D
:102C600000AF7823FB71FB1D3C201946002200F0C9
:102C700011F81E20FFF7AEFA0023FB71FB1D3C206C
:102C80001946022200F006F81E20FFF7A3FA0837C3
:102C9000BD4680BD80B582B000AF03463960FB7190
:102CA0001346BB71214801210CF0E0FC00BF1F4816
:102CB0001F490CF0C7FD0346002BF8D0FB791B48D9
:102CC000194600220CF012FD00BF184819490CF0FB
:102CD00089FD0346002BF8D0BB79144819460CF047
:102CE00063FD00BF114814490CF07CFD0346002B26
:102CF000F8D03B681B780D4819460CF055FD00BF15
:102D00000A480D490CF06EFD0346002BF8D0074829
:102D100001210CF0CBFC00BF044808490CF092FDE7
:102D20000346002BF8D10837BD4680BD0054004053
:102D3000010000108200070084000700100000104E
:102D400080B582B000AF0023FB7102F097F9FFF766
:102D50005BFA00F095F80346FB71FB79DBB2002BC0
:102D600002D0FB79DBB23DE000F0A0F90346FB7135
:102D7000FB79DBB2002B02D0FB79DBB232E01B4BDC
:102D800000221A75194B00221A60184B00225A6053
:102D9000164B00229A60154B0022DA60134B00227A
:102DA0001A611248FFF73EFA114800F045FA03464F
:102DB000FB71FB79DBB2002B08D10D4BB3F854301B
:102DC0001B04184600F080FD0346FB71FB79DBB263
:102DD000002B05D14FF4006000F00AFD0346FB71A3
:102DE000FB79DBB218460837BD4680BD103E012096
:102DF000B83D012080B582B000AF0423FB7100F024
:102E000011F80346FB71FB79042B01D1002305E087
:102E1000FB79FF2B01D1022300E00123184608377C
:102E2000BD4680BD80B582B000AF00237B6000F05E
:102E300019F80346012B0FD13B1D184600F0B4FFD3
:102E40000346002B01D0FF2307E07B685B0ADBB25F
:102E500003F00F03DBB200E0FF2318460837BD463E
:102E600080BD00BF80B483B000AF0123FB71FB794C
:102E7000DBB218460C37BD465DF8047B704700BFD7
:102E800080B586B000AF0023FB7100237B61002377
:102E90003B610023FB600023BB60814B76221A75E7
:102EA0007F4B00221A607E4B00225A607C4B00222E
:102EB0009A607B4B0022DA60794B00221A617848D5
:102EC000FFF7B0F90320FFF7EBF90120FFF7D8F97E
:102ED000744B00221A60734B00225A60714B00221F
:102EE0009A60704B0022DA606E4B4FF480621A6178
:102EF0006C48FFF7F1F900F0F7FF0346FB71FB792F
:102F0000DBB2002B02D0FB79DBB2C5E0654B4FF49E
:102F1000D5721A60634B08225A60624B40229A6055
:102F2000604B0022DA605F4B4FF480621A615D48AB
:102F3000FFF7D2F900F0FEFF0346FB71FB79DBB22D
:102F4000002B06D1584B01221A604FF08043BB6022
:102F500017E0544B00221A60524B37225A60514BF3
:102F600040229A604F4B0022DA604E4B4FF4806251
:102F70001A614C48FFF7B0F9372001F017F8034603
:102F8000FB71484B00221A60464B37225A60454B72
:102F900040229A60434B0022DA60424B4FF4806239
:102FA0001A614048FFF798F9372000F0FFFF034609
:102FB000FB71FB79DBB2002B6CD14FE0394B002267
:102FC0001A60384B37225A60364B40229A60354B94
:102FD0000022DA60334B4FF480621A613148FFF708
:102FE0007BF9372000F0E2FF0346FB71FB79DBB28F
:102FF000002B02D0FB79DBB24EE0BB6843F000430C
:1030000043F48013274A1360264B29225A60254B2C
:1030100040229A60234B0022DA60224B4FF48062F8
:103020001A612048FFF758F901F092F80346FB7146
:10303000FB79DBB2002B02D0FB79DBB22CE0002065
:10304000FFF782F978617B69DB0F012B0CBF01234D
:103050000023DBB2FB603B6901333B61FB68002B63
:1030600004D13B694FF6FE729342A7D93B694FF6F4
:10307000FE72934204D91B23FB71FB79DBB20BE098
:103080007B6903F080437B617B69002B02D0064B98
:1030900002221A60FB79DBB218461837BD4680BDA4
:1030A000103E0120A03D0120D009002080B582B053
:1030B00000AF0023FB710123BB80FFF7FFF803463D
:1030C000002B03D12523FB71FB79A7E0554B1B682F
:1030D000042B33D0544B00221A60534B02225A6007
:1030E000514BC0229A60504B0022DA604E4B4FF495
:1030F00080621A614C48FFF7EFF801F051F803467F
:10310000FB71FB79002B01D0FB7987E00020FFF7F2
:103110001BF90246454B1A600420FFF715F90246D9
:10312000424B5A600820FFF70FF902463F4B9A6066
:103130000C20FFF709F902463C4BDA60394B1B685B
:10314000002B0BD0374B1B68012B07D0354B1B686E
:10315000062B03D0334B1B68022B1ED1324B0022AF
:103160001A60314B03225A602F4B40229A602E4B3B
:103170000022DA602C4B4FF480621A612A48FFF774
:10318000ABF83B1D0320194601F03EF80346FB71E6
:10319000FB79002B01D0FB7940E0224B1B68042B0C
:1031A00039D0BB881A46224B1A60BB881B041A46CA
:1031B0001D4B1A601C4B09225A601B4BC0229A609F
:1031C000194B0022DA60184B4FF480621A611648DE
:1031D000FFF782F800F0E4FF0346FB71FB79002B58
:1031E00001D0FB791AE00020FFF7AEF80246114B40
:1031F0001A600420FFF7A8F802460E4B5A60082018
:10320000FFF7A2F802460B4B9A600C20FFF79CF8E0
:103210000246084BDA600023FB71FB791846083739
:10322000BD4680BDD0090020A03D0120E40900205A
:10323000F4090020D4090020B0B485B000AF786054
:103240000021B9730021F9738D490968C8B2796802
:1032500081F856008B49096888B27968A1F8540052
:1032600089490968090EF973F97B8909C8B2796837
:103270000870F97B01F03C018910C8B27968487088
:10328000F97B01F00301C8B2796888707E4909684A
:1032900001F47F01090CF9737968F87BC8707A49E9
:1032A000096801F47F41090AF9737968F87B0871AC
:1032B00075490968F9737968F87B487172494968FA
:1032C000090EF973F97B89B2090188B27968C8805F
:1032D0006D49496801F47F01090CF9737968C9885F
:1032E00088B2F97B0909C9B289B2014388B2796809
:1032F000C880F97B01F00F01C8B279680872624991
:10330000496801F47F41090AF973F97BC909C8B218
:1033100079684872F97B01F040018911C8B2796877
:103320008872F97B01F020014911C8B27968C8722E
:10333000F97B01F010010911C8B279680873796846
:10334000002048734E490968002904D04C49096897
:10335000012940F09B80FB7B03F003039B021A468C
:103360007B681A61484B5B68FB737B681B69FA7B5F
:1033700092001A437B681A61434B9B681B0EFB73D8
:103380007B681B69FA7B9209D2B21A437B681A6187
:10339000FB7B03F03803DB10DAB27B681A75FB7B2A
:1033A00003F00703DAB27B685A75374B9B6803F466
:1033B0007F031B0CFB73FB7B5B09DAB27B689A759E
:1033C000FB7B03F01C039B10DAB27B68DA75FB7B96
:1033D00003F00303DBB25B00DAB27B681A762A4B98
:1033E0009B6803F47F431B0AFB737B681B7EDAB286
:1033F000FB7BDB09DBB21343DAB27B681A767B68AE
:103400001B6901331A464FF000037968C1E91223A2
:103410007B681B7EDBB20233012202FA03F37A6877
:10342000D2E912011A464FEAE27302FB01F500FBF2
:1034300003F42C44A0FB0223E1180B467968C1E990
:1034400012237B681B7ADBB21A46012393401A468B
:103450007B681A657B68D3E912017B681B6D1A468D
:103460004FF0000302FB01F500FB03F42C44A0FB2A
:103470000223E1180B467968C1E9122342E000BF3C
:10348000D0090020F4090020D4090020AB490968C4
:10349000022937D1AA494968F973F97B01F03F0144
:1034A0000904084679680861A5498968090EF97315
:1034B00079680969F87B0002084379680861A049C6
:1034C000896801F47F01090CF97379680869F97B4F
:1034D0000843796808619A49896801F47F41090ABB
:1034E000F97379680969013108464FF00001CB048E
:1034F00043EA5033C2047968C1E912237B684FF470
:1035000000721A65FB7B03F040039B11DAB27B6803
:103510005A76FB7B03F03F03DBB25B00DAB27B68D9
:103520009A76874B9B68FB737B689B7EDAB2FB7B4A
:10353000DB09DBB21343DAB27B689A76FB7B03F0DC
:103540007F03DAB27B68DA767D4BDB681B0EFB7398
:10355000FB7BDB09DAB27B681A77FB7B03F0600345
:103560005B11DAB27B685A77FB7B03F01C039B107C
:10357000DAB27B689A77FB7B03F00303DBB29B0034
:10358000DAB27B68DA776E4BDB6803F47F031B0CDF
:10359000FB737B68DB7FDAB2FB7B9B09DBB21343F7
:1035A000DAB27B68DA77FB7B03F020035B11DAB2D7
:1035B0007B6883F820207B68002283F82120FB7B36
:1035C00003F00103DAB27B6883F822205C4BDB68EE
:1035D00003F47F431B0AFB73FB7BDB09DAB27B68D6
:1035E00083F82320FB7B03F040039B11DAB27B6856
:1035F00083F82420FB7B03F020035B11DAB27B68A5
:1036000083F82520FB7B03F010031B11DAB27B68E3
:1036100083F82620FB7B03F00C039B10DAB27B6857
:1036200083F82720FB7B03F00303DAB27B6883F87F
:103630002820434BDB68FB73FB7B5B08DAB27B68BB
:1036400083F829207B68012283F82A203D4B1B68E0
:103650001B0EFB737B68FA7B83F82C20394B1B68AD
:1036600003F47F031B0CFB73FB7B9BB21B029AB220
:103670007B68DA85334B1B6803F47F431B0AFB73BB
:103680007B68DB8D9AB2FB7B9BB213439AB27B685B
:10369000DA852C4B1B68FB73FB7B1B061A467B6889
:1036A0001A63284B5B681B0EFB737B681B6BFA7BF2
:1036B00012041A437B681A63224B5B6803F47F038E
:1036C0001B0CFB737B681B6BFA7B12021A437B6833
:1036D0001A631C4B5B6803F47F431B0AFB737B6814
:1036E0001A6BFB7B1A437B681A63164B5B68FB7390
:1036F0007B68FA7B83F83420124B9B681B0EFB73AC
:103700007B68FA7B83F835200E4B9B6803F47F03BC
:103710001B0CFB73FB7B1B061A467B689A63094BE9
:103720009B6803F47F431B0AFB737B689B6BFA7BEC
:1037300012041A437B689A6306E000BFD009002098
:10374000D4090020E4090020284B9B68FB737B68A8
:103750009B6BFA7B12021A437B689A63234BDB68EC
:103760001B0EFB737B689A6BFB7B1A437B689A6327
:103770001E4BDB6803F47F031B0CFB737B6893F821
:103780003C30DAB2FB7B1B09DBB21343DAB27B6855
:1037900083F83C20FB7B9BB203F00F039BB21B0220
:1037A0009AB27B68DA87114BDB6803F47F431B0A0C
:1037B000FB737B68DB8F9AB2FB7B9BB213439AB29D
:1037C0007B68DA87094BDB68FB73FB7B5B08DAB24B
:1037D0007B6883F840207B68012283F84120BB7B13
:1037E00018461437BD46B0BC704700BFE40900203E
:1037F00080B584B000AF78600023FB73304B1B684A
:10380000032B03D12723FB73FB7B54E02C4B1B685A
:10381000002B07D02A4B1B68012B03D0284B1B68B9
:10382000022B47D17B68B3F5805F03D12723FB735D
:10383000FB7B40E07B68B3F5006F1ED1012000F0F8
:103840004BFD0346FB73FB7B002B33D11D4B00224A
:103850001A751C4B00221A601A4B00225A60194B31
:1038600000229A60174B4FF40062DA60154B002279
:103870001A611448FEF7D6FC1CE0002000F02CFD75
:103880000346FB73FB7B002B14D10E4B00221A75F1
:103890000C4B00221A600B4B00225A60094B00228D
:1038A0009A60084B0022DA60064B00221A61054834
:1038B000FEF7B8FCFB7B18461037BD4680BD00BF45
:1038C000D0090020103E012080B584B000AF7860A0
:1038D0000023FB730E4A7B6813600D4B07225A606E
:1038E0000B4B40229A600A4B0022DA60084B4FF4DF
:1038F00080621A610648FEF7EFFC072000F056FBD5
:103900000346FB73FB7B18461037BD4680BD00BFE6
:10391000A03D012080B586B000AFF860B9607A6044
:103920003B600023FB75404B00221A703F4B002286
:103930001A603F4B01221A603E4B0022DA623E4B76
:103940001B68022B03D14FF400737B6004E0BB685B
:103950007A6802FB03F3BB60384A7B681360374B1D
:1039600010225A60354B40229A60344B0022DA60B4
:10397000324B4FF480621A613048FEF7ADFC1020E4
:1039800000F014FB0346FB75FB7D002B01D0FB7D93
:1039900046E02B4B4FF0FF321A603B687A6802FB1F
:1039A00003F3274A5360264B90229A60244B02224D
:1039B000DA60234B00221A61214B01225A61204810
:1039C000FEF7D6FC1D4ABB6813601C4B12225A60DE
:1039D0001A4B40229A60194B0022DA60174B4FF4C1
:1039E00080621A611548FEF777FC122000F0DEFABB
:1039F0000346FB75FB7D002B01D0FB7D10E040F200
:103A00002A300121FEF7FEFC0120FEF7EBFC3B68AB
:103A10007A6802FB03F3F868194601F0E1FBFB7DCD
:103A200018461837BD4680BD0C0A0020100A002039
:103A3000080A0020002C0140D0090020A03D0120F0
:103A4000283E012080B582B000AF0023FB714FF00B
:103A5000FF333B6002E03B68013B3B60224B1B684D
:103A6000002B0BD1214B1B68002B07D1204B1B785F
:103A7000DBB2002B02D13B68002BECD11A4B0022A9
:103A80001A604FF0FF333B6002E03B68013B3B6054
:103A9000184B5B6B03F40053002B02D03B68002BE8
:103AA000F3D1154B1B68012B03D100F059F90346E4
:103AB000FB713B68002B04D1FB79002B01D104235F
:103AC000FB7140F2FF50FEF7D5FC094B1B78DBB2CF
:103AD000002B03D0064B1B78DBB200E0FB791846C5
:103AE0000837BD4680BD00BF140A0020100A002020
:103AF0000C0A0020002C0140080A002080B586B086
:103B000000AFF860B9607A603B600023FB755E4BE4
:103B100000221A705D4B00221A605D4B01221A6070
:103B20005C4B0022DA625C4B1B68022B03D14FF422
:103B300000737B6004E0BB687A6802FB03F3BB6040
:103B4000564A7B681360554B10225A60534B4022F3
:103B50009A60524B0022DA60504B4FF480621A6137
:103B60004E48FEF7B9FB102000F020FA0346FB7523
:103B7000FB7D002B01D0FB7D82E0494B1B681B04C1
:103B8000464A1360454B37225A60444B40229A60A4
:103B9000424B0022DA60414B4FF480621A613F4889
:103BA000FEF79AFB372000F001FA0346FB75FB7D18
:103BB000002B01D0FB7D63E0384A3B681360374B34
:103BC00017225A60354B40229A60344B0022DA604B
:103BD000324B4FF480621A613048FEF77DFB1720AC
:103BE00000F0E4F90346FB75FB7D002B01D0FB7D63
:103BF00046E02A4ABB681360284B19225A60274BBB
:103C000040229A60254B0022DA60244B4FF48062F8
:103C10001A612248FEF760FB192000F0C7F903463D
:103C2000FB75FB7D002B01D0FB7D29E01D4B4FF088
:103C3000FF321A603B687A6802FB03F3194A53604B
:103C4000184B90229A60174B0022DA60154B002225
:103C50001A61144B01225A611248FEF789FB40F2A7
:103C60002A300121FEF7CEFB0120FEF7BBFB3B68AB
:103C70007A6802FB03F3F868194601F061FAFB7DEC
:103C800018461837BD4680BD0C0A0020100A0020D7
:103C9000080A0020002C0140D0090020A03D01208E
:103CA000F4090020283E012080B582B000AF002337
:103CB000FB714FF0FF333B6002E03B68013B3B6030
:103CC000224B1B68002B0BD1214B1B68002B07D10B
:103CD000204B1B78DBB2002B02D13B68002BECD1D0
:103CE0001A4B00221A604FF0FF333B6002E03B6842
:103CF000013B3B60184B5B6B03F48053002B02D0FD
:103D00003B68002BF3D1154B1B68012B03D100F04E
:103D100027F80346FB713B68002B04D1FB79002B8D
:103D200001D10423FB7140F2FF50FEF7A3FB094BC6
:103D30001B78DBB2002B03D0064B1B78DBB200E014
:103D4000FB7918460837BD4680BD00BF140A002025
:103D5000100A00200C0A0020002C0140080A002054
:103D600080B582B000AF0023FB710E4B00221A60B9
:103D70000C4B0C225A600B4B40229A60094B0022DC
:103D8000DA60084B4FF480621A610648FEF7A4FA25
:103D90000C2000F00BF90346FB71FB79184608373D
:103DA000BD4680BDA03D012080B584B000AF7860E5
:103DB0000023FB737B68002B03D12623FB73FB7B63
:103DC00025E0154B1B681B04144A1360134B0D228E
:103DD0005A60124B40229A60104B0022DA600F4B5F
:103DE0004FF480621A610D48FEF776FA0D2000F05C
:103DF000DDF80346FB73FB7B002B01D0FB7B06E069
:103E00000020FEF7A1FA02467B681A60FB7B184689
:103E10001037BD4680BD00BFF4090020A03D012041
:103E200080B500AF4FF48070FEF732FB0346002BE5
:103E30000AD02B4B00221A704FF48070FEF742FB21
:103E4000284B01221A6041E00220FEF721FB0346C5
:103E5000002B06D00220FEF735FB214B02221A7000
:103E600034E00820FEF714FB0346002B06D00820A0
:103E7000FEF728FB1A4B04221A7027E02020FEF7D9
:103E800007FB0346002B06D02020FEF71BFB144B3C
:103E900006221A701AE01020FEF7FAFA0346002BE9
:103EA00006D01020FEF70EFB0D4B05221A700DE018
:103EB0004FF40070FEF7ECFA0346002B06D04FF4E7
:103EC0000070FEF7FFFA064B07221A704CF23A30E8
:103ED0000021FEF797FA024B1B78DBB2184680BD33
:103EE0000C0A0020100A002080B582B000AF002329
:103EF000FB704FF480337B6002E07B68013B7B60AA
:103F00007B68002B05D08020FEF79AFA0346002B31
:103F1000F3D07B68002B03D10323FB70FB7804E014
:103F200040F2FF50FEF7A6FAFB7818460837BD4668
:103F300080BD00BF80B584B000AF0023FB714FF49B
:103F40008033BB60184B5B6BFB6005E0BB68013BDB
:103F5000BB60154B5B6BFB60FB6803F04503002BFC
:103F600002D1BB68002BF1D1BB68002B04D0FB68E9
:103F700003F00403002B06D00323FB710420FEF79B
:103F800079FAFB790CE0FB6803F04003002B06D0C4
:103F90000023FB714020FEF76DFAFB7900E0FB790E
:103FA00018461037BD4680BD002C014080B586B054
:103FB00000AF0346FB710023FB74634B5B6B7B61BB
:103FC00002E0614B5B6B7B617B6903F04503002B77
:103FD000F7D07B6903F00403002B06D00323FB74A6
:103FE0000420FEF747FAFB7CA9E07B6903F001039C
:103FF000002B06D00123FB740120FEF73BFAFB7C6B
:104000009DE0FEF795F903461A46FB79934203D0EB
:104010001023FB74FB7C92E040F2FF50FEF72AFA7B
:104020000020FEF791F9F860FA68484B1340002B26
:1040300001D1FB7C83E0FB68002B01DA1C237EE0CE
:10404000FB6803F08043002B01D0092377E0FB6875
:1040500003F00053002B01D00A2370E0FB6803F04B
:104060008053002B01D00B2369E0FB6803F0006351
:10407000002B01D00C2362E0FB6803F08063002B6F
:1040800001D00D235BE0FB6803F08073002B01D0AF
:104090000E2354E0FB6803F40003002B01D00F2330
:1040A0004DE0FB6803F48003002B01D0102346E0B1
:1040B000FB6803F40013002B01D011233FE0FB68E1
:1040C00003F48013002B01D0122338E0FB6803F4C3
:1040D0000023002B01D0132331E0FB6803F480237D
:1040E000002B01D014232AE0FB6803F40033002BDB
:1040F00001D0152323E0FB6803F48033002B01D0AB
:1041000016231CE0FB6803F40043002B01D01723A7
:1041100015E0FB6803F48043002B01D018230EE068
:10412000FB6803F40053002B01D0192307E0FB6860
:1041300003F00803002B01D01A2300E0FB7C184693
:104140001837BD4680BD00BF002C014008E0FFFDD0
:1041500080B582B000AF0023FB70104B5B6B7B60BF
:1041600002E00E4B5B6B7B607B6803F04503002B2A
:10417000F7D07B6803F00403002B06D00323FB7009
:104180000420FEF777F9FB7804E040F2FF50FEF7D9
:1041900071F9FB7818460837BD4680BD002C0140F8
:1041A00080B582B000AF0023FB70164B5B6B7B6069
:1041B00002E0144B5B6B7B607B6803F04503002BD4
:1041C000F7D07B6803F00403002B06D00323FB70B9
:1041D0000420FEF74FF9FB7810E07B6803F0010341
:1041E000002B06D00123FB700120FEF743F9FB787A
:1041F00004E040F2FF50FEF73DF9FB78184608371F
:10420000BD4680BD002C014080B586B000AF03469E
:104210003960FB710023FB742E4B5B6B7B6102E00A
:104220002C4B5B6B7B617B6903F04503002BF7D064
:104230007B6903F00403002B06D00323FB740420E6
:10424000FEF718F9FB7C40E07B6903F00103002BCB
:1042500006D00123FB740120FEF70CF9FB7C34E04F
:10426000FEF766F803461A46FB79934203D0102303
:10427000FB74FB7C29E040F2FF50FEF7FBF80020C6
:10428000FEF762F8F860FB6803F46043002B06D188
:10429000FB681B0C9AB23B681A80FB7C15E0FB683C
:1042A00003F40053002B01D013230EE0FB6803F44A
:1042B0008043002B01D0102307E0FB6803F4004388
:1042C000002B01D00F2300E0FB7C18461837BD46B9
:1042D00080BD00BF002C014080B586B000AF034612
:1042E000FB710023FB750023FB6000233B61002072
:1042F000FEF72AF8034603F00073002B03D00E23C9
:10430000FB75FB7D9FE0524B1B689AB207F10C03D3
:104310001046194600F0A0F80346FB75FB7D002B04
:1043200001D0FB7D8FE0FB79012B46D13B6903F483
:104330008023002B3DD0464B1B681B04454A13606D
:10434000444B37225A60434B40229A60414B002233
:10435000DA60404B4FF480621A613E48FDF7BCFFC3
:104360003720FFF723FE0346FB75FB7D002B01D0B2
:10437000FB7D68E0374B02221A60364B06225A60FA
:10438000344B40229A60334B0022DA60314B4FF4B9
:1043900080621A612F48FDF79FFF0620FFF706FE97
:1043A0000346FB75FB7D002B01D0FB7D4BE0FB7DC5
:1043B00049E02523FB75FB7D45E03B6903F4803331
:1043C000002B3DD0224B1B681B04224A1360214B5B
:1043D00037225A601F4B40229A601E4B0022DA603F
:1043E0001C4B4FF480621A611A48FDF775FF3720A5
:1043F000FFF7DCFD0346FB75FB7D002B01D0FB7D49
:1044000021E0144B00221A60124B06225A60114B15
:1044100040229A600F4B0022DA600E4B4FF480620C
:104420001A610C48FDF758FF0620FFF7BFFD034651
:10443000FB75FB7D002B01D0FB7D04E0FB7D02E0E2
:104440002523FB75FB7D18461837BD4680BD00BF90
:10445000F4090020A03D012090B587B000AF0346CD
:104460003960FB8000237B610023FB740023BB6069
:104470000023FB60754B08221A60744B10225A60AF
:10448000724B40229A60714B0022DA606F4B4FF4FE
:1044900080621A616D48FDF71FFF1020FFF786FD4F
:1044A0000346FB74FB7C002B01D0FB7CCAE0684B0D
:1044B0001B681B04654A1360644B37225A60634BC8
:1044C00040229A60614B0022DA60604B4FF48062B8
:1044D0001A615E48FDF700FF3720FFF767FD0346CE
:1044E000FB74FB7C002B01D0FB7CABE0594B4FF005
:1044F000FF321A60574B08225A60564B30229A609E
:10450000544B0222DA60534B00221A61514B0122B4
:104510005A615048FDF72CFF4C4B00221A604B4B60
:1045200033225A60494B40229A60484B0022DA609D
:10453000464B4FF480621A614448FDF7CDFE3320AC
:10454000FFF734FD0346FB74FB7C002B01D0FB7CA2
:1045500078E012E04FF40010FDF772FF0346002BE5
:104560000BD07B699B0007F10802D418FDF72EFFE2
:10457000034623607B6901337B61374B5A6B40F202
:104580002A631340002BE5D00820FDF759FF0346AE
:10459000002B06D00820FDF76DFF0423FB74FB7C85
:1045A00050E00220FDF74CFF0346002B06D002200E
:1045B000FDF760FF0223FB74FB7C43E02020FDF746
:1045C0003FFF0346002B06D02020FDF753FF0623B4
:1045D000FB74FB7C36E04FF40070FDF731FF0346BF
:1045E000002B07D04FF40070FDF744FF0723FB7446
:1045F000FB7C27E040F2FF50FDF73CFF3B680433B3
:10460000BA681106BA6802F47F4212021143BA680E
:1046100002F47F02120A1143BA68120E0A431A60AA
:10462000FB681A06FB6803F47F431B021A43FB680E
:1046300003F47F031B0A1A43FB681B0E1A433B68F3
:104640001A60FB7C18461C37BD4690BDA03D01207A
:10465000F4090020283E0120002C014080B485B0E0
:1046600000AF03463960FB713B681B88DAB2FB7907
:104670005340FB73FB7B1B01DAB2FB7B5340DBB285
:10468000FB733B681B881B0A9BB29AB2FB7B1B0225
:104690009BB253409AB2FB7BDB009BB253409AB271
:1046A000FB7B1B09DBB29BB253409BB29AB23B68C7
:1046B0001A801437BD465DF8047B704780B483B020
:1046C00000AF78607B684FF6FF721A800C37BD46EA
:1046D0005DF8047B704700BF80B584B000AF7860A0
:1046E0000B467B8007F10E031846FFF7E7FF09E052
:1046F0007B685A1C7A601A7807F10E031046194637
:10470000FFF7ACFF7B885A1E7A80002BF0D1FB8923
:1047100018461037BD4680BD80B586B000AFF86042
:10472000B9601346FB71BB687B6107E07B695A1C6B
:104730007A611B781846F968FFF790FFFB795A1EDB
:10474000FA71002BF2D11837BD4680BD80B483B01A
:1047500000AF0346FB71FA7913465B0013449B00DC
:10476000034A134418460C37BD465DF8047B704776
:10477000180A002080B586B000AF3A601A4603469A
:10478000FB710B46BB7113467B71FB791846FFF733
:10479000DDFF7861FF233B737B797B737B699B79BA
:1047A000BB73254B1B78FB73234B5B783B74BB7946
:1047B0007B747B699B790133DAB27B699A7107F16B
:1047C0000C03013318460521FFF786FF03467B8261
:1047D00007F112027B79104639681A46FFF79CFFF1
:1047E00097F8202007F1120310461946FFF736FF0D
:1047F0007B8ADBB23B727B8A1B0A9BB2DBB27B7289
:10480000FA7907F10C0310461946062200F016F853
:104810007B799BB2FA79104639681A4600F00EF897
:10482000FA7907F1080310461946022200F006F84B
:104830001837BD4680BD00BF643B012080B582B003
:1048400000AF03463960FB711346BB80FA79BB8821
:10485000104639681A4600F013FD0837BD4680BD82
:1048600080B582B000AF904B1B6818460FF0FCFD7E
:1048700002460B461046194685A3D3E900230FF0E4
:1048800047FE02460B461046194610F023F9024631
:10489000864B1A60864B1B6818460FF0E5FD0246F2
:1048A0000B46104619467AA3D3E900230FF030FED9
:1048B00002460B461046194610F00CF902467B4B97
:1048C0005A607C4B1B6818460FF0CEFD02460B4623
:1048D000104619466EA3D3E900230FF019FE0246D5
:1048E0000B461046194610F0F5F802466F4B9A60D9
:1048F000714B1B6818460FF0B7FD02460B46104679
:10490000194665A3D3E900230FF02CFF02460B469E
:104910001046194610F0DEF80246644BDA60664B2A
:104920005B6818460FF0A0FD02460B46104619467C
:1049300059A3D3E900230FF015FF02460B4610469A
:10494000194610F0C7F80246584B1A615A4B9B683B
:1049500018460FF089FD02460B46104619464EA335
:10496000D3E900230FF0FEFE02460B46104619461F
:1049700010F0B0F802464D4B5A614F4BD3ED037A1D
:10498000FDEEE77AC7ED017ABB889AB24B4B1A80ED
:10499000494BD3ED047AFDEEE77AC7ED017ABB8887
:1049A0009AB2464B5A80444BD3ED057AFDEEE77A36
:1049B000C7ED017ABB889AB2404B9A803E4BD3ED4B
:1049C000007AFDEEE77AC7ED017ABB889AB23B4BDD
:1049D000DA80394BD3ED017AFDEEE77AC7ED017A43
:1049E000BB889AB2354B1A81334BD3ED027AFDEE78
:1049F000E77AC7ED017ABB889AB2304B5A81304BC7
:104A00005A882E4B9A812E4B1A882C4BDA812C4BCC
:104A10009A882A4B1A822B4B1B6818460FF002FD0E
:104A200002460B46104619461DA3D3E900230FF09A
:104A30006FFD02460B461046194610F04BF8024631
:104A4000214B1A60214B1B681F4A5360204B93ED8A
:104A5000007A204BD3ED007A77EE277AB6EE007A13
:104A600067EE877A184BC3ED027A1B4B1B68164A18
:104A7000D3601A4B1B681A4A13601A4B1A68184BFA
:104A80005A60194B1A68164B9A600837BD4680BDAC
:104A9000B0CB631ADCA54C4066666666666630403D
:104AA0007B14AE47E17A843F34480120B03E0120B8
:104AB000304801202C4801202C4701205C3E012079
:104AC00050470120000000204C3E012074090020C6
:104AD00070090020B00A0020BC0C0020983D012085
:104AE000403E01209C3D0120CC090020AFF3008016
:104AF00080B582B002AF9623009300209621034A2E
:104B00001823FFF737FEBD4680BD00BFB03E012031
:104B100080B582B002AF9723009300209721034A0B
:104B20001223FFF727FEBD4680BD00BF5C3E01207B
:104B300080B582B002AF9823009300209821034AE9
:104B40001023FFF717FEBD4680BD00BF4C3E01207D
:104B500080B400AFBD465DF8047B704780B582B07D
:104B600002AF9A23009300209A21034A2623FFF7DD
:104B700001FEBD4680BD00BF883E012080B582B0E9
:104B800002AF9B23009300209B21034A0C23FFF7D5
:104B9000F1FDBD4680BD00BF403E012080B584B020
:104BA00002AF164B1A78164B1A70164B1B78DAB2F6
:104BB000134B5A70144B1A68114B02331A600023BE
:104BC000FB710CE0FB79FA79104931F812100C4AAC
:104BD0005B0013440A46DA80FB790133FB71FB79F1
:104BE000072BEFD99C23009300209C21044A162315
:104BF000FFF7C0FD0837BD4680BD00BFA0090020FB
:104C0000703E0120140B00209C090020D03E0120A2
:104C100080B582B002AF9D23009300209D21034AFE
:104C20000323FFF7A7FDBD4680BD00BF6C8F0108C1
:104C300080B584B002AF0346FB71FA1DC823009310
:104C40000020C8210123FFF795FD0837BD4680BD30
:104C500080B483B000AF0023FB7115E0FB795B00EB
:104C60000B33204AD35CDBB23B71FB7906335B002C
:104C70001C4AD35CDBB27B71FB79B9881A4A22F8F3
:104C80001310FB790133FB71FB79072BE6D9174B26
:104C900000221A70164B01221A70134B1B8940F226
:104CA000AE62934204D8104B1B89B3F57A7F03D2CE
:104CB000104B00221A7010E00B4B1B89B3F5AF6F3D
:104CC00008D9094B1B89B3F5C86F03D2094B0122E0
:104CD0001A7002E0074B02221A700C37BD465DF8CD
:104CE000047B7047A0700120E83E0120210C0020C9
:104CF000200C0020A009002080B582B000AF002366
:104D0000FB710AE0FB79FA79094931F81210094A76
:104D100022F81310FB790133FB71FB79072BF1D9D2
:104D2000FDF7DEFB2920FFF783FF0837BD4680BD76
:104D3000E83E0120F83E012080B584B000AF034674
:104D4000FB710023FB73FB79002B03D0FB7B43F04B
:104D50000103FB73FDF7F4FF0346002B03D0FB7B3D
:104D600043F00103FB73FB7B18461037BD4680BD43
:104D700080B584B000AF0346FB710023FB73FEF7E0
:104D800071F80346012B03D0FB7B43F00203FB7356
:104D9000FB7B18461037BD4680BD00BF90B5ADF512
:104DA000077D00AF044607F108000160391D0A6065
:104DB000194607F10F0322461A7007F10E030A463F
:104DC0001A70FEF74FF80346012B01D003236FE062
:104DD00007F108031B6803F00303002B39D00023FD
:104DE00087F8173229E03B1D1B683A1D591C1160DA
:104DF00007F10F02117807F11402084611461A460E
:104E00000123FFF7CBFF034687F8173297F81732D5
:104E1000002B00D01AE007F1080307F1140218680C
:104E200011464FF400720FF0B9FF07F1080307F1C4
:104E30000802126802F500721A6007F10E031B786F
:104E400007F10E02591E1170002BCCD197F81732C2
:104E50002EE007F10E031C7807F108023B1D1068D5
:104E600019684FF400722346FEF754FD034687F895
:104E7000163297F81632002B19D1FEF7E3FD0346E0
:104E800087F81632FDF7B6FF034687F8153297F814
:104E90001532012BF6D097F81532022B03D097F874
:104EA0001632002B01D0012302E0002300E0012391
:104EB000184607F50777BD4690BD00BF90B5ADF524
:104EC000077D00AF044607F108000160391D0A6044
:104ED000194607F10F0322461A7007F10E030A461E
:104EE0001A70FDF7BFFF0346012B01D003236FE0CB
:104EF00007F108031B6803F00303002B39D00023DC
:104F000087F8173229E007F1140207F10803104669
:104F100019684FF400720FF041FF3B1D1B683A1DEA
:104F2000591C116007F10F02117807F114020846AD
:104F300011461A460123FFF7C1FF034687F81732CF
:104F400097F81732002B00D010E007F1080307F1A3
:104F50000802126802F500721A6007F10E031B784E
:104F600007F10E02591E1170002BCCD197F81732A1
:104F70002EE007F10E031C7807F108023B1D1068B4
:104F800019684FF400722346FEF7B8FD034687F810
:104F9000163297F81632002B19D1FEF785FE03461C
:104FA00087F81632FDF726FF034687F8153297F883
:104FB0001532012BF6D097F81532022B03D097F853
:104FC0001632002B01D0012302E0002300E0012370
:104FD000184607F50777BD4690BD00BF80B483B083
:104FE00000AF03463A60FB710B46BB7100231846C5
:104FF0000C37BD465DF8047B704700BF80B400AF3E
:1050000000231846BD465DF8047B704780B582B02A
:1050100000AF124B7B60124B3B6007E03B681A1DF0
:105020003A607A68111D796012681A603B680D4A0F
:105030009342F3D30C480D494FF000028842B8BFA9
:1050400040F8042BFADBDFF82800016841F4700116
:10505000016000F0D5FB0837BD4680BD1C970108F4
:10506000000000206C09002070090020847E0120CF
:1050700088ED00E080B400AFFEE700BF80B582B0ED
:1050800000AF0C20012101F0ADFA2B4808210C22C1
:1050900005F0EAF8284809210C2205F0E5F8264831
:1050A0000A210C2205F0E0F823480B210C2205F020
:1050B000DBF821480C210C2205F0D6F81F4802210C
:1050C0000C2205F0D1F84FF470633B6001237B7133
:1050D00002233B710023BB710123FB713B46164841
:1050E000194605F01BF804233B603B46134819465C
:1050F00005F014F84FF480533B600023FB713B46EE
:105100000D48194605F00AF804233B6000233B7163
:105110000123FB713B460848194604F0FFFF4FF49A
:105120000060012101F09AFA4FF48000012101F0A2
:1051300059FA0837BD4680BD00080240000C024005
:1051400080B592B000AF7860396023484FF0FA51D3
:1051500005F0F8FC2048002105F0BEFC1E4805F0D3
:1051600093FB4FF00063FB601C4B3B617B687B61F2
:105170004023BB610023FB6100233B624FF480634B
:105180007B624FF48053BB624FF48043FB62002389
:105190003B634FF440337B630423BB630323FB6314
:1051A0004FF400033B644FF400137B6407F10C03DE
:1051B0000948194605F03AFC07481021012205F07C
:1051C000EFFC0548202105F0A3FC0348012105F070
:1051D00083FC4837BD4680BD58640240802C0140A6
:1051E00080B592B000AF7860396023484FF0FA5133
:1051F00005F0A8FC2048002105F06EFC1E4805F0D3
:1052000043FB4FF00063FB601C4B3B617B687B61A1
:105210000023BB610023FB6100233B624FF48063EA
:105220007B624FF48053BB624FF48043FB620023E8
:105230003B634FF440337B630423BB630323FB6373
:105240004FF400033B644FF400137B6407F10C033D
:105250000948194605F0EAFB07481021012205F02C
:105260009FFC0548202105F053FC0348012105F06F
:1052700033FC4837BD4680BD58640240802C014055
:1052800080B582B000AF03463960FB711346BB8026
:105290000C4B00221A700B4B1B781A460A4B1A440F
:1052A000BB88104639681A460FF078FDBB88DBB220
:1052B000184600F00BF801231BB218460837BD460C
:1052C00080BD00BF480A0020083F012080B584B09F
:1052D00000AF0346FB7110E00B4B1B785A1CD1B298
:1052E000094A11701A46094B9B5CFB73FB7B1846FD
:1052F00003F09AFFFB79013BFB71FB79002BEBD1AB
:105300001037BD4680BD00BF480A0020083F01207D
:1053100080B483B000AF0346FB80044AFB8813606F
:105320000C37BD465DF8047B704700BF003000407D
:1053300080B483B000AF0346FB71044AFB7953602D
:105340000C37BD465DF8047B704700BF003000405D
:1053500080B483B000AF0346FB80044AFB889360AF
:105360000C37BD465DF8047B704700BF003000403D
:1053700080B400AF034B4AF6AA221A60BD465DF81E
:10538000047B70470030004080B400AF034B4CF604
:10539000CC421A60BD465DF8047B70470030004087
:1053A00080B584B000AF786007F1080378681946CB
:1053B00006F006FC3B7A03F01F03012B0AD0022BF8
:1053C0000FD0002B14D107F108037868194606F0B6
:1053D00019F816E007F108037868194606F062F834
:1053E0000FE007F108037868194606F08FF808E027
:1053F0003B7A23F07F03DBB2786819460AF00CFD94
:1054000000BF002318461037BD4680BD80B584B06C
:1054100000AF78600B46FB70FB78002B44D17B68B3
:1054200003F55D73FB607B6893F81131032B4ED15C
:10543000FB68DA69FB689B689A4220D9FB68DA69E5
:10544000FB689B68D21AFB68DA617B68DB78012B0A
:1054500006D1FB68DA68FB689B681A44FB68DA606F
:10546000FB68D968FB689A68FB68DB69934228BFD0
:1054700013469BB278681A460BF026FB27E07B6840
:10548000D3F8E4351B69002B0AD07B6893F81231FE
:10549000032B05D17B68D3F8E4351B6978689847FE
:1054A00078680BF025FB12E07B68D3F8E4359B6944
:1054B000002B0CD07B6893F81231032B07D17B684B
:1054C000D3F8E4359B69FA78786811469847002349
:1054D00018461037BD4680BD80B584B000AF7860F7
:1054E0000B46FB70FB78002B6CD17B6803F58E7349
:1054F000FB607B6893F81131022B56D1FB68DA69A7
:10550000FB689B689A421CD9FB68DA69FB689B6858
:10551000D21AFB68DA617B68DB78012B06D1FB6865
:10552000DA68FB689B681A44FB68DA60FB68DA6833
:10553000FB68DB699BB2786811461A460BF0B0FA3B
:1055400033E0FB681B6AFA689268B3FBF2F102FB76
:1055500001F29B1A002B14D1FB681A6AFB689B6846
:105560009A420ED3FB681A6AFB685B6A9A4208D2B9
:105570007868002100220BF093FAFB6800225A623F
:1055800013E07B68D3F8E435DB68002B0AD07B6836
:1055900093F81231032B05D17B68D3F8E435DB682F
:1055A0007868984778680BF0BBFA7B6893F81631F7
:1055B000012B1AD1786800F01DF87B68002283F86F
:1055C000162112E07B68D3F8E4355B69002B0CD020
:1055D0007B6893F81231032B07D17B68D3F8E4354D
:1055E0005B69FA78786811469847002318461037A7
:1055F000BD4680BD80B483B000AF78607B681B6916
:10560000044A12685A60002318460C37BD465DF8FC
:10561000047B70471040012080B582B000AF7860F5
:1056200078680021402200230AF022FB786880215C
:10563000402200230AF01CFB7B68012283F8122120
:105640007B68D3F8E8355B687A68927810469847AB
:10565000002318460837BD4680BD00BF80B582B024
:1056600000AF78607B68D3F8E8351B6998477B68A2
:1056700093F813217B6883F812217B68032283F857
:105680001221002318460837BD4680BD80B582B080
:1056900000AF78607B6893F812217B6883F8132150
:1056A0007B68042283F812217B68D3F8E835DB6835
:1056B0009847002318460837BD4680BD80B582B0A4
:1056C00000AF78607B68D3F8E435DB69002B05D048
:1056D0007B68D3F8E435DB6978689847002318467F
:1056E0000837BD4680BD00BF80B582B000AF78608E
:1056F0000B46FB707B68D3F8E4351B68FA78786852
:10570000114698477B68D3F8E8359B689847002393
:1057100018460837BD4680BD80B582B000AF7860BE
:105720000B46FB707B68D3F8E4355B68FA787868E1
:1057300011469847002318460837BD4680BD00BF74
:1057400080B582B000AF78607B68D3F8E4351B6A1F
:1057500078689847002318460837BD4680BD00BFCB
:1057600080B582B000AF78607B68D3F8E4355B6ABF
:1057700078689847002318460837BD4680BD00BFAB
:1057800080B582B000AF78607B68D3F8E8355B699C
:1057900098477B68012283F81521002318460837B3
:1057A000BD4680BD80B582B000AF78607B68D3F81D
:1057B000E8359B6998477B68D3F8E4355B6878687F
:1057C000002198477B68002283F8152100231846A2
:1057D0000837BD4680BD00BF80B400AFBFF34F8F18
:1057E0000549054BDB6803F4E062044B1343CB60CF
:1057F000BFF34F8FFEE700BF00ED00E00400FA05A5
:1058000080B586B004AF04F071FF2020012100F0C4
:10581000E9FE4FF460533B6001233B710023BB71F1
:105820000123FB7102237B713B462548194604F096
:1058300075FC4FF440700AF0A9F900F05FF84FF4DE
:10584000805001210BF024FD4FF4001001210BF0DA
:105850001FFDFCF7EDFE7D2000F05AFF0346002BF4
:1058600007D017484FF40061012204F0E5FC00F076
:1058700089FF002300930023019300230293002358
:105880000393104810494FF48062002302F0E0FDBA
:105890000223009300230193002302930023039328
:1058A0000A480B494FF4A052002302F0D1FD02F048
:1058B000A7FE084A074B5B6983F480535361F8E7FE
:1058C0000014024029590008708F0108BD5B0008D0
:1058D000848F0108000C024080B582B000AF3123F4
:1058E0003B710E237B710023BB710123FB713B1DB8
:1058F00018460AF05DF90837BD4680BD80B500AF97
:10590000012000F0B5FD45F25550FFF701FD0320E1
:10591000FFF70EFD40F6B830FFF71AFDFFF728FD40
:10592000FFF732FD80BD00BF80B584B000AF00231B
:10593000BB600023FB8003F011FC05F087F903F046
:1059400067FE02F02FFD02F0BBF9814802F0E2FC95
:1059500002F0C2FA7F4802F0DDFC04F06DF97E4BE4
:105960001B78012B04D1FFF703FD7B4B00221A703B
:105970007A4B1B889BB2002B05D0794840F22771E7
:105980000122FDF7C7F8774B9B88002B05D076489E
:1059900040F227710122FDF7BDF8744B1B889BB2C2
:1059A000002B05D0724840F227710122FDF7B2F8B2
:1059B00005F09CFA6F4B1B88002B01D003F01CFDF7
:1059C0006D4B1B78002B04D003F0CCFD6A4B0022FA
:1059D0001A706A4B1B78DBB2002B56D0684B1B78D1
:1059E000DBB2012B51D167486749132208F0F8FF59
:1059F00003461A46654B1A70654B1B686148194689
:105A000009F0BEFB634B1B78DBB2012B16D1624B56
:105A100003F5A0531B889BB25A485F491A465F4B57
:105A200009F04EF95C4B03F5A0531B889BB21A4654
:105A3000574B1B681344564A13601AE0554B1B78AA
:105A4000DBB2022B15D1564B03F5A0531B889BB23A
:105A50004C4853491A46514B09F032F9504B03F563
:105A6000A0531B889BB21A46494B1B681344484AF3
:105A70001360434B00221A70424809F06DFB494AFB
:105A8000484B5B6983F48053536102F0B3FE0346D5
:105A90005B003B603A68BB68D31A632B57D93B68FD
:105AA0009AB2BB689BB2D31AFB803F4B1B889BB258
:105AB0001A4613461B019B1ADB003C4A82FB031269
:105AC0005210DB17D31AFA884FF47A7191FBF2F275
:105AD00002FB03F31A46364B1A60334B00221A803E
